{"project/contracts/FlashLoanArbitrageur.sol":{"FlashLoanArbitrageur":{"abi":[{"anonymous":false,"inputs":[{"indexed":true,"internalType":"address","name":"token","type":"address"},{"indexed":false,"internalType":"uint256","name":"amount","type":"uint256"},{"indexed":false,"internalType":"uint256","name":"profit","type":"uint256"}],"name":"FlashLoanExecuted","type":"event"},{"anonymous":false,"inputs":[{"indexed":true,"internalType":"address","name":"previousOwner","type":"address"},{"indexed":true,"internalType":"address","name":"newOwner","type":"address"}],"name":"OwnershipTransferred","type":"event"},{"anonymous":false,"inputs":[{"indexed":true,"internalType":"address","name":"token","type":"address"},{"indexed":false,"internalType":"uint256","name":"amount","type":"uint256"},{"indexed":true,"internalType":"address","name":"recipient","type":"address"}],"name":"ProfitExtracted","type":"event"},{"anonymous":false,"inputs":[{"indexed":true,"internalType":"address","name":"fromToken","type":"address"},{"indexed":true,"internalType":"address","name":"toToken","type":"address"},{"indexed":false,"internalType":"uint256","name":"fromAmount","type":"uint256"},{"indexed":false,"internalType":"uint256","name":"toAmount","type":"uint256"}],"name":"SwapExecuted","type":"event"},{"inputs":[],"name":"ADDRESSES_PROVIDER","outputs":[{"internalType":"address","name":"","type":"address"}],"stateMutability":"pure","type":"function"},{"inputs":[],"name":"LENDING_POOL","outputs":[{"internalType":"address","name":"","type":"address"}],"stateMutability":"pure","type":"function"},{"inputs":[{"internalType":"address","name":"asset","type":"address"},{"internalType":"uint256","name":"amount","type":"uint256"},{"internalType":"uint256","name":"premium","type":"uint256"},{"internalType":"address","name":"initiator","type":"address"},{"internalType":"bytes","name":"params","type":"bytes"}],"name":"executeOperation","outputs":[{"internalType":"bytes32","name":"","type":"bytes32"}],"stateMutability":"nonpayable","type":"function"},{"inputs":[],"name":"flashLoanAmount","outputs":[{"internalType":"uint256","name":"","type":"uint256"}],"stateMutability":"view","type":"function"},{"inputs":[],"name":"flashLoanToken","outputs":[{"internalType":"address","name":"","type":"address"}],"stateMutability":"view","type":"function"},{"inputs":[{"internalType":"address","name":"token","type":"address"},{"internalType":"uint256","name":"amount","type":"uint256"},{"internalType":"bytes","name":"params","type":"bytes"}],"name":"initiateFlashLoan","outputs":[],"stateMutability":"nonpayable","type":"function"},{"inputs":[],"name":"owner","outputs":[{"internalType":"address","name":"","type":"address"}],"stateMutability":"view","type":"function"},{"inputs":[],"name":"profitRecipient","outputs":[{"internalType":"address","name":"","type":"address"}],"stateMutability":"view","type":"function"},{"inputs":[{"internalType":"address","name":"token","type":"address"},{"internalType":"uint256","name":"amount","type":"uint256"}],"name":"recoverToken","outputs":[],"stateMutability":"nonpayable","type":"function"},{"inputs":[],"name":"renounceOwnership","outputs":[],"stateMutability":"nonpayable","type":"function"},{"inputs":[{"internalType":"address","name":"newOwner","type":"address"}],"name":"transferOwnership","outputs":[],"stateMutability":"nonpayable","type":"function"},{"stateMutability":"payable","type":"receive"}],"evm":{"bytecode":{"linkReferences":{},"object":"60806040523461002257610011610026565b6040516113c861015382396113c890f35b5f80fd5b61002e610074565b565b61003d61003d61003d9290565b90565b61003d6001610030565b905f19905b9181191691161790565b9061006961003d61007092610030565b825461004a565b9055565b61007c61008e565b61002e610087610040565b6001610059565b61002e336100fe565b61003d905b6001600160a01b031690565b61003d9054610097565b906001600160a01b039061004f565b61003d9061009c906001600160a01b031682565b61003d906100c1565b61003d906100d5565b906100f761003d610070926100de565b82546100b2565b61012261011c61010d5f6100a8565b610117845f6100e7565b6100de565b916100de565b907f8be0079c531659141344cd1fd0a4f28419497f9722a3daafe3b4186f6b6457e061014d60405190565b5f90a356fe6080604052600436101561001a575b3615610018575f80fd5b005b5f3560e01c80630542975c146100c957806309369024146100c45780631b11d0ff146100bf578063715018a6146100ba57806373843962146100b55780637e2bad1e146100b05780638da5cb5b146100ab578063b29a8140146100a6578063b4dcfc77146100a1578063e95437aa1461009c5763f2fde38b0361000e576103ea565b6103ba565b61034b565b610332565b6102f4565b6102d9565b6102b3565b610275565b610243565b610162565b6100f1565b5f9103126100d857565b5f80fd5b6001600160a01b031690565b90565b9052565b565b346100d8576101013660046100ce565b61013473a97684ead0e402dc232d5a977953df7ecbab3cdb5b604051918291826001600160a01b03909116815260200190565b0390f35b6100e8916008021c6001600160a01b031690565b906100e89154610138565b6100e85f600261014c565b346100d8576101723660046100ce565b61013461011a610157565b6001600160a01b0381165b036100d857565b905035906100ef8261017d565b80610188565b905035906100ef8261019c565b909182601f830112156100d85781359167ffffffffffffffff83116100d85760200192600183028401116100d857565b91909160a0818403126100d8576101f6838261018f565b9261020481602084016101a2565b9261021282604085016101a2565b92610220836060830161018f565b92608082013567ffffffffffffffff81116100d85761023f92016101af565b9091565b346100d8576101346102656102593660046101df565b949390939291926106a6565b6040519182918290815260200190565b346100d8576102853660046100ce565b61028d610962565b604051005b6100e8916008021c81565b906100e89154610292565b6100e85f600361029d565b346100d8576102c33660046100ce565b6101346102656102a8565b6100e85f600461014c565b346100d8576102e93660046100ce565b61013461011a6102ce565b346100d8576103043660046100ce565b61013461011a61096a565b91906040838203126100d8576100e890602061032b828661018f565b94016101a2565b346100d85761028d61034536600461030f565b906109e4565b346100d85761035b3660046100ce565b61013473794a61358d6845594f94dc1db02a252b5b4814ad61011a565b916060838303126100d85761038d828461018f565b9261039b83602083016101a2565b92604082013567ffffffffffffffff81116100d85761023f92016101af565b346100d85761028d6103cd366004610378565b92919091610d8d565b906020828203126100d8576100e89161018f565b346100d85761028d6103fd3660046103d6565b610e29565b6100e8906100dc906001600160a01b031682565b6100e890610402565b6100e890610416565b6100e873794a61358d6845594f94dc1db02a252b5b4814ad61041f565b0190565b1561045057565b60405162461bcd60e51b815260206004820152601960248201527f466c6173684c6f616e3a20496e76616c6964206c656e64657200000000000000604482015280606481015b0390fd5b156104a157565b60405162461bcd60e51b815260206004820152601c60248201527f466c6173684c6f616e3a20496e76616c696420696e69746961746f72000000006044820152606490fd5b62ffffff8116610188565b905035906100ef826104e6565b61018881600f0b90565b905035906100ef826104fe565b909160c0828403126100d85761052b838361018f565b9261053981602085016104f1565b92610547826040830161018f565b926100e86105588460608501610508565b9360a061032b8260808701610508565b634e487b7160e01b5f52601160045260245ffd5b9190820180921161058957565b610568565b1561059557565b60405162461bcd60e51b815260206004820152601e60248201527f466c6173684c6f616e3a20496e73756666696369656e742070726f66697400006044820152606490fd5b634e487b7160e01b5f52604160045260245ffd5b90601f01601f1916810190811067ffffffffffffffff82111761061057604052565b6105da565b801515610188565b905051906100ef82610615565b906020828203126100d8576100e89161061d565b6001600160a01b0390911681526040810192916100ef9160200152565b6040513d5f823e3d90fd5b9190820391821161058957565b6100e86100e86100e89290565b6100e8906100dc565b6100e89054610680565b9081526040810192916100ef9160200152565b9361074561073661073f61073061072161074c9561078b98979b6107196106f09b6106ce5f90565b506106f76106e26106dd610428565b61041f565b9d8e6001600160a01b031690565b3314610449565b6107136107066100dc3061041f565b916001600160a01b031690565b1461049a565b810190610515565b5095929396919694909461041f565b9561041f565b918c868d610f15565b93611126565b918661057c565b906107598282101561058e565b6020826107686106dd8861041f565b9561077260405190565b958692839263095ea7b360e01b5b84526004840161063e565b03815f885af1928315610909576107a79361090e575b50610666565b906107b15f610673565b8211610820575b506107e37f61268d74931c41c9775dffb6169a5208aab1d09cb2eb6aabe8b97162801e5dfa9261041f565b926107f96107f060405190565b92839283610693565b0390a27f439148f0bbc682ca079e46d6e2c2f0c1e3b820f1a291b069d8882abf8cf18dd990565b91602082610850946108326004610689565b5f61083c60405190565b80988195829461078063a9059cbb60e01b90565b03925af1908115610909577f61268d74931c41c9775dffb6169a5208aab1d09cb2eb6aabe8b97162801e5dfa936107e3926108dc575b506108916004610689565b6108a361089d8361041f565b9161041f565b907fe8eb8c8f84adf2839882d9edcae76aac2fdc2db21e5b6733649b7f814e29657e6108ce60405190565b868152602090a392506107b8565b6108fd9060203d602011610902575b6108f581836105ee565b81019061062a565b610886565b503d6108eb565b61065b565b6109269060203d602011610902576108f581836105ee565b6107a1565b610933611286565b6100ef610951565b6100dc6100e86100e89290565b6100e89061093b565b6100ef61095d5f610948565b6112a3565b6100ef61092b565b6100e85f610689565b906100ef91610980611286565b6109b8916109926106dd60209361041f565b61099a61096a565b5f6109a460405190565b80968195829461078063a9059cbb60e01b90565b03925af18015610909576109c95750565b6109e19060203d602011610902576108f581836105ee565b50565b906100ef91610973565b906100ef9392916109fd611286565b90610a11939291610a0c611355565b610c7a565b6100ef611387565b906001600160a01b03905b9181191691161790565b90610a3e6100e8610a459261041f565b8254610a19565b9055565b905f1990610a24565b90610a626100e8610a4592610673565b8254610a49565b906100ef610a7660405190565b92836105ee565b67ffffffffffffffff81116106105760208091020190565b90610aa7610aa283610a7d565b610a69565b918252565b369037565b906100ef610ac7610ac184610a95565b93610a7d565b601f190160208401610aac565b634e487b7160e01b5f52603260045260245ffd5b90610af1825190565b811015610b02576020809102010190565b610ad4565b90610b27610b20610b16845190565b8084529260200190565b9260200190565b905f5b818110610b375750505090565b909192610b5d610b5660019286516001600160a01b0316815260200190565b9460200190565b929101610b2a565b90610b74610b20610b16845190565b905f5b818110610b845750505090565b909192610b9a610b566001928651815260200190565b929101610b77565b90825f939282370152565b9190610bcb81610bc4816104459560209181520190565b8095610ba2565b601f01601f191690565b610be26100e86100e89290565b61ffff1690565b6100eb90610bd5565b98979590610c53610c7295610c458c60c09997610c37610c65966100ef9e99610c2a60e08601925f8701906001600160a01b03169052565b8482036020860152610b07565b916040818403910152610b65565b8c810360608e015290610b65565b6001600160a01b0390941660808b0152565b88830360a08a0152610bad565b940190610be9565b9291610c87846002610a2e565b610c92826003610a52565b610ca4610c9d61096a565b6004610a2e565b610d05610cb16001610673565b610cde610cbd82610ab1565b96610cd0610cca5f610673565b89610ae8565b906001600160a01b03169052565b610d00610cea82610ab1565b94610cfd610cf75f610673565b87610ae8565b52565b610ab1565b91610d1c610d125f610673565b610cfd8186610ae8565b610d276106dd610428565b91610d313061041f565b95833b156100d857610d655f80978194610d4a60405190565b9a8b998a98899763ab9c4b5d60e01b89528360048a01610bf2565b03925af1801561090957610d765750565b6100ef905f610d8581836105ee565b8101906100ce565b906100ef9392916109ee565b6100ef90610da5611286565b610e05565b15610db157565b60405162461bcd60e51b815260206004820152602660248201527f4f776e61626c653a206e6577206f776e657220697320746865207a65726f206160448201526564647265737360d01b6064820152608490fd5b6100ef9061095d610e186100dc5f610948565b6001600160a01b0383161415610daa565b6100ef90610d99565b6100e873e592427a0aece92de3edee1f18e0157c0586156461041f565b6100e8610100610a69565b905051906100ef8261019c565b906020828203126100d8576100e891610e5a565b80516001600160a01b031682526100ef919060e09081906020818101516001600160a01b03169085015260408181015162ffffff16908501526060808201516001600160a01b031690850152610ed660808201516080860152565b610ee560a082015160a0860152565b610ef460c082015160c0860152565b01516001600160a01b0316910152565b610100810192916100ef9190610e7b565b9392610f236106dd8661041f565b90610f2f6106dd610e32565b906020610f3b60405190565b93849063095ea7b360e01b8252815f81610f598b896004840161063e565b03925af19182156109095787610fe761103f935f966020966110c7575b50610fe0610f833061041f565b610fd0610f99610f93603c610673565b4261057c565b93610fb6610fa5610e4f565b6001600160a01b039098168c890152565b6001600160a01b038c16878b015262ffffff166040870152565b6001600160a01b03166060850152565b6080830152565b610ff28760a0830152565b611005610ffe86610673565b60c0830152565b6110216110118661093b565b6001600160a01b031660e0830152565b604051948593849283919063414bf38960e01b835260048301610f04565b03925af18015610909577fdd36740e2a012d93061a0d99eaa9107860955de4e90027d3cf465a055026c407915f91611098575b50611086611080829761041f565b9361041f565b936110936107f060405190565b0390a3565b6110ba915060203d6020116110c0575b6110b281836105ee565b810190610e67565b5f611072565b503d6110a8565b6110dd90873d8911610902576108f581836105ee565b610f76565b6100eb90610673565b61111f6100ef9461111860609498979561110e608086019a5f870190600f0b9052565b600f0b6020850152565b6040830152565b01906110e2565b9192611165919594936111365f90565b506020856111466106dd8761041f565b895f61115160405190565b80988195829461078063095ea7b360e01b90565b03925af1918215610909575f6111896106dd829a6020978a9761121b575b5061041f565b926111b061119660405190565b9a8b9687958694630f7c084960e21b8652600486016110eb565b03925af1938415610909575f946111fa575b507fdd36740e2a012d93061a0d99eaa9107860955de4e90027d3cf465a055026c407846110866110806111f45f610948565b9461041f565b61121491945060203d6020116110c0576110b281836105ee565b925f6111c2565b61123190893d8b11610902576108f581836105ee565b611183565b1561123d57565b60405162461bcd60e51b815280610496600482016020808252818101527f4f776e61626c653a2063616c6c6572206973206e6f7420746865206f776e6572604082015260600190565b6100ef61129161096a565b61129d610706336100dc565b14611236565b6112bc61089d6112b25f610689565b6106dd845f610a2e565b907f8be0079c531659141344cd1fd0a4f28419497f9722a3daafe3b4186f6b6457e06112e760405190565b8080611093565b6100e89081565b6100e890546112ee565b6100e86002610673565b1561131057565b60405162461bcd60e51b815260206004820152601f60248201527f5265656e7472616e637947756172643a207265656e7472616e742063616c6c006044820152606490fd5b6100ef61136260016112f5565b61137661136d6112ff565b91821415611309565b6001610a52565b6100e86001610673565b6100ef61137661137d56fea2646970667358221220e7932947f3106ba487855eb1ba91a763b2544e2b877dd37d5011f985e6db094664736f6c634300081c0033","opcodes":"PUSH1 0x80 PUSH1 0x40 MSTORE CALLVALUE PUSH2 0x22 JUMPI PUSH2 0x11 PUSH2 0x26 JUMP JUMPDEST PUSH1 0x40 MLOAD PUSH2 0x13C8 PUSH2 0x153 DUP3 CODECOPY PUSH2 0x13C8 SWAP1 RETURN JUMPDEST PUSH0 DUP1 REVERT JUMPDEST PUSH2 0x2E PUSH2 0x74 JUMP JUMPDEST JUMP JUMPDEST PUSH2 0x3D PUSH2 0x3D PUSH2 0x3D SWAP3 SWAP1 JUMP JUMPDEST SWAP1 JUMP JUMPDEST PUSH2 0x3D PUSH1 0x1 PUSH2 0x30 JUMP JUMPDEST SWAP1 PUSH0 NOT SWAP1 JUMPDEST SWAP2 DUP2 NOT AND SWAP2 AND OR SWAP1 JUMP JUMPDEST SWAP1 PUSH2 0x69 PUSH2 0x3D PUSH2 0x70 SWAP3 PUSH2 0x30 JUMP JUMPDEST DUP3 SLOAD PUSH2 0x4A JUMP JUMPDEST SWAP1 SSTORE JUMP JUMPDEST PUSH2 0x7C PUSH2 0x8E JUMP JUMPDEST PUSH2 0x2E PUSH2 0x87 PUSH2 0x40 JUMP JUMPDEST PUSH1 0x1 PUSH2 0x59 JUMP JUMPDEST PUSH2 0x2E CALLER PUSH2 0xFE JUMP JUMPDEST PUSH2 0x3D SWAP1 JUMPDEST PUSH1 0x1 PUSH1 0x1 PUSH1 0xA0 SHL SUB AND SWAP1 JUMP JUMPDEST PUSH2 0x3D SWAP1 SLOAD PUSH2 0x97 JUMP JUMPDEST SWAP1 PUSH1 0x1 PUSH1 0x1 PUSH1 0xA0 SHL SUB SWAP1 PUSH2 0x4F JUMP JUMPDEST PUSH2 0x3D SWAP1 PUSH2 0x9C SWAP1 PUSH1 0x1 PUSH1 0x1 PUSH1 0xA0 SHL SUB AND DUP3 JUMP JUMPDEST PUSH2 0x3D SWAP1 PUSH2 0xC1 JUMP JUMPDEST PUSH2 0x3D SWAP1 PUSH2 0xD5 JUMP JUMPDEST SWAP1 PUSH2 0xF7 PUSH2 0x3D PUSH2 0x70 SWAP3 PUSH2 0xDE JUMP JUMPDEST DUP3 SLOAD PUSH2 0xB2 JUMP JUMPDEST PUSH2 0x122 PUSH2 0x11C PUSH2 0x10D PUSH0 PUSH2 0xA8 JUMP JUMPDEST PUSH2 0x117 DUP5 PUSH0 PUSH2 0xE7 JUMP JUMPDEST PUSH2 0xDE JUMP JUMPDEST SWAP2 PUSH2 0xDE JUMP JUMPDEST SWAP1 PUSH32 0x8BE0079C531659141344CD1FD0A4F28419497F9722A3DAAFE3B4186F6B6457E0 PUSH2 0x14D PUSH1 0x40 MLOAD SWAP1 JUMP JUMPDEST PUSH0 SWAP1 LOG3 JUMP INVALID PUSH1 0x80 PUSH1 0x40 MSTORE PUSH1 0x4 CALLDATASIZE LT ISZERO PUSH2 0x1A JUMPI JUMPDEST CALLDATASIZE ISZERO PUSH2 0x18 JUMPI PUSH0 DUP1 REVERT JUMPDEST STOP JUMPDEST PUSH0 CALLDATALOAD PUSH1 0xE0 SHR DUP1 PUSH4 0x542975C EQ PUSH2 0xC9 JUMPI DUP1 PUSH4 0x9369024 EQ PUSH2 0xC4 JUMPI DUP1 PUSH4 0x1B11D0FF EQ PUSH2 0xBF JUMPI DUP1 PUSH4 0x715018A6 EQ PUSH2 0xBA JUMPI DUP1 PUSH4 0x73843962 EQ PUSH2 0xB5 JUMPI DUP1 PUSH4 0x7E2BAD1E EQ PUSH2 0xB0 JUMPI DUP1 PUSH4 0x8DA5CB5B EQ PUSH2 0xAB JUMPI DUP1 PUSH4 0xB29A8140 EQ PUSH2 0xA6 JUMPI DUP1 PUSH4 0xB4DCFC77 EQ PUSH2 0xA1 JUMPI DUP1 PUSH4 0xE95437AA EQ PUSH2 0x9C JUMPI PUSH4 0xF2FDE38B SUB PUSH2 0xE JUMPI PUSH2 0x3EA JUMP JUMPDEST PUSH2 0x3BA JUMP JUMPDEST PUSH2 0x34B JUMP JUMPDEST PUSH2 0x332 JUMP JUMPDEST PUSH2 0x2F4 JUMP JUMPDEST PUSH2 0x2D9 JUMP JUMPDEST PUSH2 0x2B3 JUMP JUMPDEST PUSH2 0x275 JUMP JUMPDEST PUSH2 0x243 JUMP JUMPDEST PUSH2 0x162 JUMP JUMPDEST PUSH2 0xF1 JUMP JUMPDEST PUSH0 SWAP2 SUB SLT PUSH2 0xD8 JUMPI JUMP JUMPDEST PUSH0 DUP1 REVERT JUMPDEST PUSH1 0x1 PUSH1 0x1 PUSH1 0xA0 SHL SUB AND SWAP1 JUMP JUMPDEST SWAP1 JUMP JUMPDEST SWAP1 MSTORE JUMP JUMPDEST JUMP JUMPDEST CALLVALUE PUSH2 0xD8 JUMPI PUSH2 0x101 CALLDATASIZE PUSH1 0x4 PUSH2 0xCE JUMP JUMPDEST PUSH2 0x134 PUSH20 0xA97684EAD0E402DC232D5A977953DF7ECBAB3CDB JUMPDEST PUSH1 0x40 MLOAD SWAP2 DUP3 SWAP2 DUP3 PUSH1 0x1 PUSH1 0x1 PUSH1 0xA0 SHL SUB SWAP1 SWAP2 AND DUP2 MSTORE PUSH1 0x20 ADD SWAP1 JUMP JUMPDEST SUB SWAP1 RETURN JUMPDEST PUSH2 0xE8 SWAP2 PUSH1 0x8 MUL SHR PUSH1 0x1 PUSH1 0x1 PUSH1 0xA0 SHL SUB AND SWAP1 JUMP JUMPDEST SWAP1 PUSH2 0xE8 SWAP2 SLOAD PUSH2 0x138 JUMP JUMPDEST PUSH2 0xE8 PUSH0 PUSH1 0x2 PUSH2 0x14C JUMP JUMPDEST CALLVALUE PUSH2 0xD8 JUMPI PUSH2 0x172 CALLDATASIZE PUSH1 0x4 PUSH2 0xCE JUMP JUMPDEST PUSH2 0x134 PUSH2 0x11A PUSH2 0x157 JUMP JUMPDEST PUSH1 0x1 PUSH1 0x1 PUSH1 0xA0 SHL SUB DUP2 AND JUMPDEST SUB PUSH2 0xD8 JUMPI JUMP JUMPDEST SWAP1 POP CALLDATALOAD SWAP1 PUSH2 0xEF DUP3 PUSH2 0x17D JUMP JUMPDEST DUP1 PUSH2 0x188 JUMP JUMPDEST SWAP1 POP CALLDATALOAD SWAP1 PUSH2 0xEF DUP3 PUSH2 0x19C JUMP JUMPDEST SWAP1 SWAP2 DUP3 PUSH1 0x1F DUP4 ADD SLT ISZERO PUSH2 0xD8 JUMPI DUP2 CALLDATALOAD SWAP2 PUSH8 0xFFFFFFFFFFFFFFFF DUP4 GT PUSH2 0xD8 JUMPI PUSH1 0x20 ADD SWAP3 PUSH1 0x1 DUP4 MUL DUP5 ADD GT PUSH2 0xD8 JUMPI JUMP JUMPDEST SWAP2 SWAP1 SWAP2 PUSH1 0xA0 DUP2 DUP5 SUB SLT PUSH2 0xD8 JUMPI PUSH2 0x1F6 DUP4 DUP3 PUSH2 0x18F JUMP JUMPDEST SWAP3 PUSH2 0x204 DUP2 PUSH1 0x20 DUP5 ADD PUSH2 0x1A2 JUMP JUMPDEST SWAP3 PUSH2 0x212 DUP3 PUSH1 0x40 DUP6 ADD PUSH2 0x1A2 JUMP JUMPDEST SWAP3 PUSH2 0x220 DUP4 PUSH1 0x60 DUP4 ADD PUSH2 0x18F JUMP JUMPDEST SWAP3 PUSH1 0x80 DUP3 ADD CALLDATALOAD PUSH8 0xFFFFFFFFFFFFFFFF DUP2 GT PUSH2 0xD8 JUMPI PUSH2 0x23F SWAP3 ADD PUSH2 0x1AF JUMP JUMPDEST SWAP1 SWAP2 JUMP JUMPDEST CALLVALUE PUSH2 0xD8 JUMPI PUSH2 0x134 PUSH2 0x265 PUSH2 0x259 CALLDATASIZE PUSH1 0x4 PUSH2 0x1DF JUMP JUMPDEST SWAP5 SWAP4 SWAP1 SWAP4 SWAP3 SWAP2 SWAP3 PUSH2 0x6A6 JUMP JUMPDEST PUSH1 0x40 MLOAD SWAP2 DUP3 SWAP2 DUP3 SWAP1 DUP2 MSTORE PUSH1 0x20 ADD SWAP1 JUMP JUMPDEST CALLVALUE PUSH2 0xD8 JUMPI PUSH2 0x285 CALLDATASIZE PUSH1 0x4 PUSH2 0xCE JUMP JUMPDEST PUSH2 0x28D PUSH2 0x962 JUMP JUMPDEST PUSH1 0x40 MLOAD STOP JUMPDEST PUSH2 0xE8 SWAP2 PUSH1 0x8 MUL SHR DUP2 JUMP JUMPDEST SWAP1 PUSH2 0xE8 SWAP2 SLOAD PUSH2 0x292 JUMP JUMPDEST PUSH2 0xE8 PUSH0 PUSH1 0x3 PUSH2 0x29D JUMP JUMPDEST CALLVALUE PUSH2 0xD8 JUMPI PUSH2 0x2C3 CALLDATASIZE PUSH1 0x4 PUSH2 0xCE JUMP JUMPDEST PUSH2 0x134 PUSH2 0x265 PUSH2 0x2A8 JUMP JUMPDEST PUSH2 0xE8 PUSH0 PUSH1 0x4 PUSH2 0x14C JUMP JUMPDEST CALLVALUE PUSH2 0xD8 JUMPI PUSH2 0x2E9 CALLDATASIZE PUSH1 0x4 PUSH2 0xCE JUMP JUMPDEST PUSH2 0x134 PUSH2 0x11A PUSH2 0x2CE JUMP JUMPDEST CALLVALUE PUSH2 0xD8 JUMPI PUSH2 0x304 CALLDATASIZE PUSH1 0x4 PUSH2 0xCE JUMP JUMPDEST PUSH2 0x134 PUSH2 0x11A PUSH2 0x96A JUMP JUMPDEST SWAP2 SWAP1 PUSH1 0x40 DUP4 DUP3 SUB SLT PUSH2 0xD8 JUMPI PUSH2 0xE8 SWAP1 PUSH1 0x20 PUSH2 0x32B DUP3 DUP7 PUSH2 0x18F JUMP JUMPDEST SWAP5 ADD PUSH2 0x1A2 JUMP JUMPDEST CALLVALUE PUSH2 0xD8 JUMPI PUSH2 0x28D PUSH2 0x345 CALLDATASIZE PUSH1 0x4 PUSH2 0x30F JUMP JUMPDEST SWAP1 PUSH2 0x9E4 JUMP JUMPDEST CALLVALUE PUSH2 0xD8 JUMPI PUSH2 0x35B CALLDATASIZE PUSH1 0x4 PUSH2 0xCE JUMP JUMPDEST PUSH2 0x134 PUSH20 0x794A61358D6845594F94DC1DB02A252B5B4814AD PUSH2 0x11A JUMP JUMPDEST SWAP2 PUSH1 0x60 DUP4 DUP4 SUB SLT PUSH2 0xD8 JUMPI PUSH2 0x38D DUP3 DUP5 PUSH2 0x18F JUMP JUMPDEST SWAP3 PUSH2 0x39B DUP4 PUSH1 0x20 DUP4 ADD PUSH2 0x1A2 JUMP JUMPDEST SWAP3 PUSH1 0x40 DUP3 ADD CALLDATALOAD PUSH8 0xFFFFFFFFFFFFFFFF DUP2 GT PUSH2 0xD8 JUMPI PUSH2 0x23F SWAP3 ADD PUSH2 0x1AF JUMP JUMPDEST CALLVALUE PUSH2 0xD8 JUMPI PUSH2 0x28D PUSH2 0x3CD CALLDATASIZE PUSH1 0x4 PUSH2 0x378 JUMP JUMPDEST SWAP3 SWAP2 SWAP1 SWAP2 PUSH2 0xD8D JUMP JUMPDEST SWAP1 PUSH1 0x20 DUP3 DUP3 SUB SLT PUSH2 0xD8 JUMPI PUSH2 0xE8 SWAP2 PUSH2 0x18F JUMP JUMPDEST CALLVALUE PUSH2 0xD8 JUMPI PUSH2 0x28D PUSH2 0x3FD CALLDATASIZE PUSH1 0x4 PUSH2 0x3D6 JUMP JUMPDEST PUSH2 0xE29 JUMP JUMPDEST PUSH2 0xE8 SWAP1 PUSH2 0xDC SWAP1 PUSH1 0x1 PUSH1 0x1 PUSH1 0xA0 SHL SUB AND DUP3 JUMP JUMPDEST PUSH2 0xE8 SWAP1 PUSH2 0x402 JUMP JUMPDEST PUSH2 0xE8 SWAP1 PUSH2 0x416 JUMP JUMPDEST PUSH2 0xE8 PUSH20 0x794A61358D6845594F94DC1DB02A252B5B4814AD PUSH2 0x41F JUMP JUMPDEST ADD SWAP1 JUMP JUMPDEST ISZERO PUSH2 0x450 JUMPI JUMP JUMPDEST PUSH1 0x40 MLOAD PUSH3 0x461BCD PUSH1 0xE5 SHL DUP2 MSTORE PUSH1 0x20 PUSH1 0x4 DUP3 ADD MSTORE PUSH1 0x19 PUSH1 0x24 DUP3 ADD MSTORE PUSH32 0x466C6173684C6F616E3A20496E76616C6964206C656E64657200000000000000 PUSH1 0x44 DUP3 ADD MSTORE DUP1 PUSH1 0x64 DUP2 ADD JUMPDEST SUB SWAP1 REVERT JUMPDEST ISZERO PUSH2 0x4A1 JUMPI JUMP JUMPDEST PUSH1 0x40 MLOAD PUSH3 0x461BCD PUSH1 0xE5 SHL DUP2 MSTORE PUSH1 0x20 PUSH1 0x4 DUP3 ADD MSTORE PUSH1 0x1C PUSH1 0x24 DUP3 ADD MSTORE PUSH32 0x466C6173684C6F616E3A20496E76616C696420696E69746961746F7200000000 PUSH1 0x44 DUP3 ADD MSTORE PUSH1 0x64 SWAP1 REVERT JUMPDEST PUSH3 0xFFFFFF DUP2 AND PUSH2 0x188 JUMP JUMPDEST SWAP1 POP CALLDATALOAD SWAP1 PUSH2 0xEF DUP3 PUSH2 0x4E6 JUMP JUMPDEST PUSH2 0x188 DUP2 PUSH1 0xF SIGNEXTEND SWAP1 JUMP JUMPDEST SWAP1 POP CALLDATALOAD SWAP1 PUSH2 0xEF DUP3 PUSH2 0x4FE JUMP JUMPDEST SWAP1 SWAP2 PUSH1 0xC0 DUP3 DUP5 SUB SLT PUSH2 0xD8 JUMPI PUSH2 0x52B DUP4 DUP4 PUSH2 0x18F JUMP JUMPDEST SWAP3 PUSH2 0x539 DUP2 PUSH1 0x20 DUP6 ADD PUSH2 0x4F1 JUMP JUMPDEST SWAP3 PUSH2 0x547 DUP3 PUSH1 0x40 DUP4 ADD PUSH2 0x18F JUMP JUMPDEST SWAP3 PUSH2 0xE8 PUSH2 0x558 DUP5 PUSH1 0x60 DUP6 ADD PUSH2 0x508 JUMP JUMPDEST SWAP4 PUSH1 0xA0 PUSH2 0x32B DUP3 PUSH1 0x80 DUP8 ADD PUSH2 0x508 JUMP JUMPDEST PUSH4 0x4E487B71 PUSH1 0xE0 SHL PUSH0 MSTORE PUSH1 0x11 PUSH1 0x4 MSTORE PUSH1 0x24 PUSH0 REVERT JUMPDEST SWAP2 SWAP1 DUP3 ADD DUP1 SWAP3 GT PUSH2 0x589 JUMPI JUMP JUMPDEST PUSH2 0x568 JUMP JUMPDEST ISZERO PUSH2 0x595 JUMPI JUMP JUMPDEST PUSH1 0x40 MLOAD PUSH3 0x461BCD PUSH1 0xE5 SHL DUP2 MSTORE PUSH1 0x20 PUSH1 0x4 DUP3 ADD MSTORE PUSH1 0x1E PUSH1 0x24 DUP3 ADD MSTORE PUSH32 0x466C6173684C6F616E3A20496E73756666696369656E742070726F6669740000 PUSH1 0x44 DUP3 ADD MSTORE PUSH1 0x64 SWAP1 REVERT JUMPDEST PUSH4 0x4E487B71 PUSH1 0xE0 SHL PUSH0 MSTORE PUSH1 0x41 PUSH1 0x4 MSTORE PUSH1 0x24 PUSH0 REVERT JUMPDEST SWAP1 PUSH1 0x1F ADD PUSH1 0x1F NOT AND DUP2 ADD SWAP1 DUP2 LT PUSH8 0xFFFFFFFFFFFFFFFF DUP3 GT OR PUSH2 0x610 JUMPI PUSH1 0x40 MSTORE JUMP JUMPDEST PUSH2 0x5DA JUMP JUMPDEST DUP1 ISZERO ISZERO PUSH2 0x188 JUMP JUMPDEST SWAP1 POP MLOAD SWAP1 PUSH2 0xEF DUP3 PUSH2 0x615 JUMP JUMPDEST SWAP1 PUSH1 0x20 DUP3 DUP3 SUB SLT PUSH2 0xD8 JUMPI PUSH2 0xE8 SWAP2 PUSH2 0x61D JUMP JUMPDEST PUSH1 0x1 PUSH1 0x1 PUSH1 0xA0 SHL SUB SWAP1 SWAP2 AND DUP2 MSTORE PUSH1 0x40 DUP2 ADD SWAP3 SWAP2 PUSH2 0xEF SWAP2 PUSH1 0x20 ADD MSTORE JUMP JUMPDEST PUSH1 0x40 MLOAD RETURNDATASIZE PUSH0 DUP3 RETURNDATACOPY RETURNDATASIZE SWAP1 REVERT JUMPDEST SWAP2 SWAP1 DUP3 SUB SWAP2 DUP3 GT PUSH2 0x589 JUMPI JUMP JUMPDEST PUSH2 0xE8 PUSH2 0xE8 PUSH2 0xE8 SWAP3 SWAP1 JUMP JUMPDEST PUSH2 0xE8 SWAP1 PUSH2 0xDC JUMP JUMPDEST PUSH2 0xE8 SWAP1 SLOAD PUSH2 0x680 JUMP JUMPDEST SWAP1 DUP2 MSTORE PUSH1 0x40 DUP2 ADD SWAP3 SWAP2 PUSH2 0xEF SWAP2 PUSH1 0x20 ADD MSTORE JUMP JUMPDEST SWAP4 PUSH2 0x745 PUSH2 0x736 PUSH2 0x73F PUSH2 0x730 PUSH2 0x721 PUSH2 0x74C SWAP6 PUSH2 0x78B SWAP9 SWAP8 SWAP12 PUSH2 0x719 PUSH2 0x6F0 SWAP12 PUSH2 0x6CE PUSH0 SWAP1 JUMP JUMPDEST POP PUSH2 0x6F7 PUSH2 0x6E2 PUSH2 0x6DD PUSH2 0x428 JUMP JUMPDEST PUSH2 0x41F JUMP JUMPDEST SWAP14 DUP15 PUSH1 0x1 PUSH1 0x1 PUSH1 0xA0 SHL SUB AND SWAP1 JUMP JUMPDEST CALLER EQ PUSH2 0x449 JUMP JUMPDEST PUSH2 0x713 PUSH2 0x706 PUSH2 0xDC ADDRESS PUSH2 0x41F JUMP JUMPDEST SWAP2 PUSH1 0x1 PUSH1 0x1 PUSH1 0xA0 SHL SUB AND SWAP1 JUMP JUMPDEST EQ PUSH2 0x49A JUMP JUMPDEST DUP2 ADD SWAP1 PUSH2 0x515 JUMP JUMPDEST POP SWAP6 SWAP3 SWAP4 SWAP7 SWAP2 SWAP7 SWAP5 SWAP1 SWAP5 PUSH2 0x41F JUMP JUMPDEST SWAP6 PUSH2 0x41F JUMP JUMPDEST SWAP2 DUP13 DUP7 DUP14 PUSH2 0xF15 JUMP JUMPDEST SWAP4 PUSH2 0x1126 JUMP JUMPDEST SWAP2 DUP7 PUSH2 0x57C JUMP JUMPDEST SWAP1 PUSH2 0x759 DUP3 DUP3 LT ISZERO PUSH2 0x58E JUMP JUMPDEST PUSH1 0x20 DUP3 PUSH2 0x768 PUSH2 0x6DD DUP9 PUSH2 0x41F JUMP JUMPDEST SWAP6 PUSH2 0x772 PUSH1 0x40 MLOAD SWAP1 JUMP JUMPDEST SWAP6 DUP7 SWAP3 DUP4 SWAP3 PUSH4 0x95EA7B3 PUSH1 0xE0 SHL JUMPDEST DUP5 MSTORE PUSH1 0x4 DUP5 ADD PUSH2 0x63E JUMP JUMPDEST SUB DUP2 PUSH0 DUP9 GAS CALL SWAP3 DUP4 ISZERO PUSH2 0x909 JUMPI PUSH2 0x7A7 SWAP4 PUSH2 0x90E JUMPI JUMPDEST POP PUSH2 0x666 JUMP JUMPDEST SWAP1 PUSH2 0x7B1 PUSH0 PUSH2 0x673 JUMP JUMPDEST DUP3 GT PUSH2 0x820 JUMPI JUMPDEST POP PUSH2 0x7E3 PUSH32 0x61268D74931C41C9775DFFB6169A5208AAB1D09CB2EB6AABE8B97162801E5DFA SWAP3 PUSH2 0x41F JUMP JUMPDEST SWAP3 PUSH2 0x7F9 PUSH2 0x7F0 PUSH1 0x40 MLOAD SWAP1 JUMP JUMPDEST SWAP3 DUP4 SWAP3 DUP4 PUSH2 0x693 JUMP JUMPDEST SUB SWAP1 LOG2 PUSH32 0x439148F0BBC682CA079E46D6E2C2F0C1E3B820F1A291B069D8882ABF8CF18DD9 SWAP1 JUMP JUMPDEST SWAP2 PUSH1 0x20 DUP3 PUSH2 0x850 SWAP5 PUSH2 0x832 PUSH1 0x4 PUSH2 0x689 JUMP JUMPDEST PUSH0 PUSH2 0x83C PUSH1 0x40 MLOAD SWAP1 JUMP JUMPDEST DUP1 SWAP9 DUP2 SWAP6 DUP3 SWAP5 PUSH2 0x780 PUSH4 0xA9059CBB PUSH1 0xE0 SHL SWAP1 JUMP JUMPDEST SUB SWAP3 GAS CALL SWAP1 DUP2 ISZERO PUSH2 0x909 JUMPI PUSH32 0x61268D74931C41C9775DFFB6169A5208AAB1D09CB2EB6AABE8B97162801E5DFA SWAP4 PUSH2 0x7E3 SWAP3 PUSH2 0x8DC JUMPI JUMPDEST POP PUSH2 0x891 PUSH1 0x4 PUSH2 0x689 JUMP JUMPDEST PUSH2 0x8A3 PUSH2 0x89D DUP4 PUSH2 0x41F JUMP JUMPDEST SWAP2 PUSH2 0x41F JUMP JUMPDEST SWAP1 PUSH32 0xE8EB8C8F84ADF2839882D9EDCAE76AAC2FDC2DB21E5B6733649B7F814E29657E PUSH2 0x8CE PUSH1 0x40 MLOAD SWAP1 JUMP JUMPDEST DUP7 DUP2 MSTORE PUSH1 0x20 SWAP1 LOG3 SWAP3 POP PUSH2 0x7B8 JUMP JUMPDEST PUSH2 0x8FD SWAP1 PUSH1 0x20 RETURNDATASIZE PUSH1 0x20 GT PUSH2 0x902 JUMPI JUMPDEST PUSH2 0x8F5 DUP2 DUP4 PUSH2 0x5EE JUMP JUMPDEST DUP2 ADD SWAP1 PUSH2 0x62A JUMP JUMPDEST PUSH2 0x886 JUMP JUMPDEST POP RETURNDATASIZE PUSH2 0x8EB JUMP JUMPDEST PUSH2 0x65B JUMP JUMPDEST PUSH2 0x926 SWAP1 PUSH1 0x20 RETURNDATASIZE PUSH1 0x20 GT PUSH2 0x902 JUMPI PUSH2 0x8F5 DUP2 DUP4 PUSH2 0x5EE JUMP JUMPDEST PUSH2 0x7A1 JUMP JUMPDEST PUSH2 0x933 PUSH2 0x1286 JUMP JUMPDEST PUSH2 0xEF PUSH2 0x951 JUMP JUMPDEST PUSH2 0xDC PUSH2 0xE8 PUSH2 0xE8 SWAP3 SWAP1 JUMP JUMPDEST PUSH2 0xE8 SWAP1 PUSH2 0x93B JUMP JUMPDEST PUSH2 0xEF PUSH2 0x95D PUSH0 PUSH2 0x948 JUMP JUMPDEST PUSH2 0x12A3 JUMP JUMPDEST PUSH2 0xEF PUSH2 0x92B JUMP JUMPDEST PUSH2 0xE8 PUSH0 PUSH2 0x689 JUMP JUMPDEST SWAP1 PUSH2 0xEF SWAP2 PUSH2 0x980 PUSH2 0x1286 JUMP JUMPDEST PUSH2 0x9B8 SWAP2 PUSH2 0x992 PUSH2 0x6DD PUSH1 0x20 SWAP4 PUSH2 0x41F JUMP JUMPDEST PUSH2 0x99A PUSH2 0x96A JUMP JUMPDEST PUSH0 PUSH2 0x9A4 PUSH1 0x40 MLOAD SWAP1 JUMP JUMPDEST DUP1 SWAP7 DUP2 SWAP6 DUP3 SWAP5 PUSH2 0x780 PUSH4 0xA9059CBB PUSH1 0xE0 SHL SWAP1 JUMP JUMPDEST SUB SWAP3 GAS CALL DUP1 ISZERO PUSH2 0x909 JUMPI PUSH2 0x9C9 JUMPI POP JUMP JUMPDEST PUSH2 0x9E1 SWAP1 PUSH1 0x20 RETURNDATASIZE PUSH1 0x20 GT PUSH2 0x902 JUMPI PUSH2 0x8F5 DUP2 DUP4 PUSH2 0x5EE JUMP JUMPDEST POP JUMP JUMPDEST SWAP1 PUSH2 0xEF SWAP2 PUSH2 0x973 JUMP JUMPDEST SWAP1 PUSH2 0xEF SWAP4 SWAP3 SWAP2 PUSH2 0x9FD PUSH2 0x1286 JUMP JUMPDEST SWAP1 PUSH2 0xA11 SWAP4 SWAP3 SWAP2 PUSH2 0xA0C PUSH2 0x1355 JUMP JUMPDEST PUSH2 0xC7A JUMP JUMPDEST PUSH2 0xEF PUSH2 0x1387 JUMP JUMPDEST SWAP1 PUSH1 0x1 PUSH1 0x1 PUSH1 0xA0 SHL SUB SWAP1 JUMPDEST SWAP2 DUP2 NOT AND SWAP2 AND OR SWAP1 JUMP JUMPDEST SWAP1 PUSH2 0xA3E PUSH2 0xE8 PUSH2 0xA45 SWAP3 PUSH2 0x41F JUMP JUMPDEST DUP3 SLOAD PUSH2 0xA19 JUMP JUMPDEST SWAP1 SSTORE JUMP JUMPDEST SWAP1 PUSH0 NOT SWAP1 PUSH2 0xA24 JUMP JUMPDEST SWAP1 PUSH2 0xA62 PUSH2 0xE8 PUSH2 0xA45 SWAP3 PUSH2 0x673 JUMP JUMPDEST DUP3 SLOAD PUSH2 0xA49 JUMP JUMPDEST SWAP1 PUSH2 0xEF PUSH2 0xA76 PUSH1 0x40 MLOAD SWAP1 JUMP JUMPDEST SWAP3 DUP4 PUSH2 0x5EE JUMP JUMPDEST PUSH8 0xFFFFFFFFFFFFFFFF DUP2 GT PUSH2 0x610 JUMPI PUSH1 0x20 DUP1 SWAP2 MUL ADD SWAP1 JUMP JUMPDEST SWAP1 PUSH2 0xAA7 PUSH2 0xAA2 DUP4 PUSH2 0xA7D JUMP JUMPDEST PUSH2 0xA69 JUMP JUMPDEST SWAP2 DUP3 MSTORE JUMP JUMPDEST CALLDATASIZE SWAP1 CALLDATACOPY JUMP JUMPDEST SWAP1 PUSH2 0xEF PUSH2 0xAC7 PUSH2 0xAC1 DUP5 PUSH2 0xA95 JUMP JUMPDEST SWAP4 PUSH2 0xA7D JUMP JUMPDEST PUSH1 0x1F NOT ADD PUSH1 0x20 DUP5 ADD PUSH2 0xAAC JUMP JUMPDEST PUSH4 0x4E487B71 PUSH1 0xE0 SHL PUSH0 MSTORE PUSH1 0x32 PUSH1 0x4 MSTORE PUSH1 0x24 PUSH0 REVERT JUMPDEST SWAP1 PUSH2 0xAF1 DUP3 MLOAD SWAP1 JUMP JUMPDEST DUP2 LT ISZERO PUSH2 0xB02 JUMPI PUSH1 0x20 DUP1 SWAP2 MUL ADD ADD SWAP1 JUMP JUMPDEST PUSH2 0xAD4 JUMP JUMPDEST SWAP1 PUSH2 0xB27 PUSH2 0xB20 PUSH2 0xB16 DUP5 MLOAD SWAP1 JUMP JUMPDEST DUP1 DUP5 MSTORE SWAP3 PUSH1 0x20 ADD SWAP1 JUMP JUMPDEST SWAP3 PUSH1 0x20 ADD SWAP1 JUMP JUMPDEST SWAP1 PUSH0 JUMPDEST DUP2 DUP2 LT PUSH2 0xB37 JUMPI POP POP POP SWAP1 JUMP JUMPDEST SWAP1 SWAP2 SWAP3 PUSH2 0xB5D PUSH2 0xB56 PUSH1 0x1 SWAP3 DUP7 MLOAD PUSH1 0x1 PUSH1 0x1 PUSH1 0xA0 SHL SUB AND DUP2 MSTORE PUSH1 0x20 ADD SWAP1 JUMP JUMPDEST SWAP5 PUSH1 0x20 ADD SWAP1 JUMP JUMPDEST SWAP3 SWAP2 ADD PUSH2 0xB2A JUMP JUMPDEST SWAP1 PUSH2 0xB74 PUSH2 0xB20 PUSH2 0xB16 DUP5 MLOAD SWAP1 JUMP JUMPDEST SWAP1 PUSH0 JUMPDEST DUP2 DUP2 LT PUSH2 0xB84 JUMPI POP POP POP SWAP1 JUMP JUMPDEST SWAP1 SWAP2 SWAP3 PUSH2 0xB9A PUSH2 0xB56 PUSH1 0x1 SWAP3 DUP7 MLOAD DUP2 MSTORE PUSH1 0x20 ADD SWAP1 JUMP JUMPDEST SWAP3 SWAP2 ADD PUSH2 0xB77 JUMP JUMPDEST SWAP1 DUP3 PUSH0 SWAP4 SWAP3 DUP3 CALLDATACOPY ADD MSTORE JUMP JUMPDEST SWAP2 SWAP1 PUSH2 0xBCB DUP2 PUSH2 0xBC4 DUP2 PUSH2 0x445 SWAP6 PUSH1 0x20 SWAP2 DUP2 MSTORE ADD SWAP1 JUMP JUMPDEST DUP1 SWAP6 PUSH2 0xBA2 JUMP JUMPDEST PUSH1 0x1F ADD PUSH1 0x1F NOT AND SWAP1 JUMP JUMPDEST PUSH2 0xBE2 PUSH2 0xE8 PUSH2 0xE8 SWAP3 SWAP1 JUMP JUMPDEST PUSH2 0xFFFF AND SWAP1 JUMP JUMPDEST PUSH2 0xEB SWAP1 PUSH2 0xBD5 JUMP JUMPDEST SWAP9 SWAP8 SWAP6 SWAP1 PUSH2 0xC53 PUSH2 0xC72 SWAP6 PUSH2 0xC45 DUP13 PUSH1 0xC0 SWAP10 SWAP8 PUSH2 0xC37 PUSH2 0xC65 SWAP7 PUSH2 0xEF SWAP15 SWAP10 PUSH2 0xC2A PUSH1 0xE0 DUP7 ADD SWAP3 PUSH0 DUP8 ADD SWAP1 PUSH1 0x1 PUSH1 0x1 PUSH1 0xA0 SHL SUB AND SWAP1 MSTORE JUMP JUMPDEST DUP5 DUP3 SUB PUSH1 0x20 DUP7 ADD MSTORE PUSH2 0xB07 JUMP JUMPDEST SWAP2 PUSH1 0x40 DUP2 DUP5 SUB SWAP2 ADD MSTORE PUSH2 0xB65 JUMP JUMPDEST DUP13 DUP2 SUB PUSH1 0x60 DUP15 ADD MSTORE SWAP1 PUSH2 0xB65 JUMP JUMPDEST PUSH1 0x1 PUSH1 0x1 PUSH1 0xA0 SHL SUB SWAP1 SWAP5 AND PUSH1 0x80 DUP12 ADD MSTORE JUMP JUMPDEST DUP9 DUP4 SUB PUSH1 0xA0 DUP11 ADD MSTORE PUSH2 0xBAD JUMP JUMPDEST SWAP5 ADD SWAP1 PUSH2 0xBE9 JUMP JUMPDEST SWAP3 SWAP2 PUSH2 0xC87 DUP5 PUSH1 0x2 PUSH2 0xA2E JUMP JUMPDEST PUSH2 0xC92 DUP3 PUSH1 0x3 PUSH2 0xA52 JUMP JUMPDEST PUSH2 0xCA4 PUSH2 0xC9D PUSH2 0x96A JUMP JUMPDEST PUSH1 0x4 PUSH2 0xA2E JUMP JUMPDEST PUSH2 0xD05 PUSH2 0xCB1 PUSH1 0x1 PUSH2 0x673 JUMP JUMPDEST PUSH2 0xCDE PUSH2 0xCBD DUP3 PUSH2 0xAB1 JUMP JUMPDEST SWAP7 PUSH2 0xCD0 PUSH2 0xCCA PUSH0 PUSH2 0x673 JUMP JUMPDEST DUP10 PUSH2 0xAE8 JUMP JUMPDEST SWAP1 PUSH1 0x1 PUSH1 0x1 PUSH1 0xA0 SHL SUB AND SWAP1 MSTORE JUMP JUMPDEST PUSH2 0xD00 PUSH2 0xCEA DUP3 PUSH2 0xAB1 JUMP JUMPDEST SWAP5 PUSH2 0xCFD PUSH2 0xCF7 PUSH0 PUSH2 0x673 JUMP JUMPDEST DUP8 PUSH2 0xAE8 JUMP JUMPDEST MSTORE JUMP JUMPDEST PUSH2 0xAB1 JUMP JUMPDEST SWAP2 PUSH2 0xD1C PUSH2 0xD12 PUSH0 PUSH2 0x673 JUMP JUMPDEST PUSH2 0xCFD DUP2 DUP7 PUSH2 0xAE8 JUMP JUMPDEST PUSH2 0xD27 PUSH2 0x6DD PUSH2 0x428 JUMP JUMPDEST SWAP2 PUSH2 0xD31 ADDRESS PUSH2 0x41F JUMP JUMPDEST SWAP6 DUP4 EXTCODESIZE ISZERO PUSH2 0xD8 JUMPI PUSH2 0xD65 PUSH0 DUP1 SWAP8 DUP2 SWAP5 PUSH2 0xD4A PUSH1 0x40 MLOAD SWAP1 JUMP JUMPDEST SWAP11 DUP12 SWAP10 DUP11 SWAP9 DUP10 SWAP8 PUSH4 0xAB9C4B5D PUSH1 0xE0 SHL DUP10 MSTORE DUP4 PUSH1 0x4 DUP11 ADD PUSH2 0xBF2 JUMP JUMPDEST SUB SWAP3 GAS CALL DUP1 ISZERO PUSH2 0x909 JUMPI PUSH2 0xD76 JUMPI POP JUMP JUMPDEST PUSH2 0xEF SWAP1 PUSH0 PUSH2 0xD85 DUP2 DUP4 PUSH2 0x5EE JUMP JUMPDEST DUP2 ADD SWAP1 PUSH2 0xCE JUMP JUMPDEST SWAP1 PUSH2 0xEF SWAP4 SWAP3 SWAP2 PUSH2 0x9EE JUMP JUMPDEST PUSH2 0xEF SWAP1 PUSH2 0xDA5 PUSH2 0x1286 JUMP JUMPDEST PUSH2 0xE05 JUMP JUMPDEST ISZERO PUSH2 0xDB1 JUMPI JUMP JUMPDEST PUSH1 0x40 MLOAD PUSH3 0x461BCD PUSH1 0xE5 SHL DUP2 MSTORE PUSH1 0x20 PUSH1 0x4 DUP3 ADD MSTORE PUSH1 0x26 PUSH1 0x24 DUP3 ADD MSTORE PUSH32 0x4F776E61626C653A206E6577206F776E657220697320746865207A65726F2061 PUSH1 0x44 DUP3 ADD MSTORE PUSH6 0x646472657373 PUSH1 0xD0 SHL PUSH1 0x64 DUP3 ADD MSTORE PUSH1 0x84 SWAP1 REVERT JUMPDEST PUSH2 0xEF SWAP1 PUSH2 0x95D PUSH2 0xE18 PUSH2 0xDC PUSH0 PUSH2 0x948 JUMP JUMPDEST PUSH1 0x1 PUSH1 0x1 PUSH1 0xA0 SHL SUB DUP4 AND EQ ISZERO PUSH2 0xDAA JUMP JUMPDEST PUSH2 0xEF SWAP1 PUSH2 0xD99 JUMP JUMPDEST PUSH2 0xE8 PUSH20 0xE592427A0AECE92DE3EDEE1F18E0157C05861564 PUSH2 0x41F JUMP JUMPDEST PUSH2 0xE8 PUSH2 0x100 PUSH2 0xA69 JUMP JUMPDEST SWAP1 POP MLOAD SWAP1 PUSH2 0xEF DUP3 PUSH2 0x19C JUMP JUMPDEST SWAP1 PUSH1 0x20 DUP3 DUP3 SUB SLT PUSH2 0xD8 JUMPI PUSH2 0xE8 SWAP2 PUSH2 0xE5A JUMP JUMPDEST DUP1 MLOAD PUSH1 0x1 PUSH1 0x1 PUSH1 0xA0 SHL SUB AND DUP3 MSTORE PUSH2 0xEF SWAP2 SWAP1 PUSH1 0xE0 SWAP1 DUP2 SWAP1 PUSH1 0x20 DUP2 DUP2 ADD MLOAD PUSH1 0x1 PUSH1 0x1 PUSH1 0xA0 SHL SUB AND SWAP1 DUP6 ADD MSTORE PUSH1 0x40 DUP2 DUP2 ADD MLOAD PUSH3 0xFFFFFF AND SWAP1 DUP6 ADD MSTORE PUSH1 0x60 DUP1 DUP3 ADD MLOAD PUSH1 0x1 PUSH1 0x1 PUSH1 0xA0 SHL SUB AND SWAP1 DUP6 ADD MSTORE PUSH2 0xED6 PUSH1 0x80 DUP3 ADD MLOAD PUSH1 0x80 DUP7 ADD MSTORE JUMP JUMPDEST PUSH2 0xEE5 PUSH1 0xA0 DUP3 ADD MLOAD PUSH1 0xA0 DUP7 ADD MSTORE JUMP JUMPDEST PUSH2 0xEF4 PUSH1 0xC0 DUP3 ADD MLOAD PUSH1 0xC0 DUP7 ADD MSTORE JUMP JUMPDEST ADD MLOAD PUSH1 0x1 PUSH1 0x1 PUSH1 0xA0 SHL SUB AND SWAP2 ADD MSTORE JUMP JUMPDEST PUSH2 0x100 DUP2 ADD SWAP3 SWAP2 PUSH2 0xEF SWAP2 SWAP1 PUSH2 0xE7B JUMP JUMPDEST SWAP4 SWAP3 PUSH2 0xF23 PUSH2 0x6DD DUP7 PUSH2 0x41F JUMP JUMPDEST SWAP1 PUSH2 0xF2F PUSH2 0x6DD PUSH2 0xE32 JUMP JUMPDEST SWAP1 PUSH1 0x20 PUSH2 0xF3B PUSH1 0x40 MLOAD SWAP1 JUMP JUMPDEST SWAP4 DUP5 SWAP1 PUSH4 0x95EA7B3 PUSH1 0xE0 SHL DUP3 MSTORE DUP2 PUSH0 DUP2 PUSH2 0xF59 DUP12 DUP10 PUSH1 0x4 DUP5 ADD PUSH2 0x63E JUMP JUMPDEST SUB SWAP3 GAS CALL SWAP2 DUP3 ISZERO PUSH2 0x909 JUMPI DUP8 PUSH2 0xFE7 PUSH2 0x103F SWAP4 PUSH0 SWAP7 PUSH1 0x20 SWAP7 PUSH2 0x10C7 JUMPI JUMPDEST POP PUSH2 0xFE0 PUSH2 0xF83 ADDRESS PUSH2 0x41F JUMP JUMPDEST PUSH2 0xFD0 PUSH2 0xF99 PUSH2 0xF93 PUSH1 0x3C PUSH2 0x673 JUMP JUMPDEST TIMESTAMP PUSH2 0x57C JUMP JUMPDEST SWAP4 PUSH2 0xFB6 PUSH2 0xFA5 PUSH2 0xE4F JUMP JUMPDEST PUSH1 0x1 PUSH1 0x1 PUSH1 0xA0 SHL SUB SWAP1 SWAP9 AND DUP13 DUP10 ADD MSTORE JUMP JUMPDEST PUSH1 0x1 PUSH1 0x1 PUSH1 0xA0 SHL SUB DUP13 AND DUP8 DUP12 ADD MSTORE PUSH3 0xFFFFFF AND PUSH1 0x40 DUP8 ADD MSTORE JUMP JUMPDEST PUSH1 0x1 PUSH1 0x1 PUSH1 0xA0 SHL SUB AND PUSH1 0x60 DUP6 ADD MSTORE JUMP JUMPDEST PUSH1 0x80 DUP4 ADD MSTORE JUMP JUMPDEST PUSH2 0xFF2 DUP8 PUSH1 0xA0 DUP4 ADD MSTORE JUMP JUMPDEST PUSH2 0x1005 PUSH2 0xFFE DUP7 PUSH2 0x673 JUMP JUMPDEST PUSH1 0xC0 DUP4 ADD MSTORE JUMP JUMPDEST PUSH2 0x1021 PUSH2 0x1011 DUP7 PUSH2 0x93B JUMP JUMPDEST PUSH1 0x1 PUSH1 0x1 PUSH1 0xA0 SHL SUB AND PUSH1 0xE0 DUP4 ADD MSTORE JUMP JUMPDEST PUSH1 0x40 MLOAD SWAP5 DUP6 SWAP4 DUP5 SWAP3 DUP4 SWAP2 SWAP1 PUSH4 0x414BF389 PUSH1 0xE0 SHL DUP4 MSTORE PUSH1 0x4 DUP4 ADD PUSH2 0xF04 JUMP JUMPDEST SUB SWAP3 GAS CALL DUP1 ISZERO PUSH2 0x909 JUMPI PUSH32 0xDD36740E2A012D93061A0D99EAA9107860955DE4E90027D3CF465A055026C407 SWAP2 PUSH0 SWAP2 PUSH2 0x1098 JUMPI JUMPDEST POP PUSH2 0x1086 PUSH2 0x1080 DUP3 SWAP8 PUSH2 0x41F JUMP JUMPDEST SWAP4 PUSH2 0x41F JUMP JUMPDEST SWAP4 PUSH2 0x1093 PUSH2 0x7F0 PUSH1 0x40 MLOAD SWAP1 JUMP JUMPDEST SUB SWAP1 LOG3 JUMP JUMPDEST PUSH2 0x10BA SWAP2 POP PUSH1 0x20 RETURNDATASIZE PUSH1 0x20 GT PUSH2 0x10C0 JUMPI JUMPDEST PUSH2 0x10B2 DUP2 DUP4 PUSH2 0x5EE JUMP JUMPDEST DUP2 ADD SWAP1 PUSH2 0xE67 JUMP JUMPDEST PUSH0 PUSH2 0x1072 JUMP JUMPDEST POP RETURNDATASIZE PUSH2 0x10A8 JUMP JUMPDEST PUSH2 0x10DD SWAP1 DUP8 RETURNDATASIZE DUP10 GT PUSH2 0x902 JUMPI PUSH2 0x8F5 DUP2 DUP4 PUSH2 0x5EE JUMP JUMPDEST PUSH2 0xF76 JUMP JUMPDEST PUSH2 0xEB SWAP1 PUSH2 0x673 JUMP JUMPDEST PUSH2 0x111F PUSH2 0xEF SWAP5 PUSH2 0x1118 PUSH1 0x60 SWAP5 SWAP9 SWAP8 SWAP6 PUSH2 0x110E PUSH1 0x80 DUP7 ADD SWAP11 PUSH0 DUP8 ADD SWAP1 PUSH1 0xF SIGNEXTEND SWAP1 MSTORE JUMP JUMPDEST PUSH1 0xF SIGNEXTEND PUSH1 0x20 DUP6 ADD MSTORE JUMP JUMPDEST PUSH1 0x40 DUP4 ADD MSTORE JUMP JUMPDEST ADD SWAP1 PUSH2 0x10E2 JUMP JUMPDEST SWAP2 SWAP3 PUSH2 0x1165 SWAP2 SWAP6 SWAP5 SWAP4 PUSH2 0x1136 PUSH0 SWAP1 JUMP JUMPDEST POP PUSH1 0x20 DUP6 PUSH2 0x1146 PUSH2 0x6DD DUP8 PUSH2 0x41F JUMP JUMPDEST DUP10 PUSH0 PUSH2 0x1151 PUSH1 0x40 MLOAD SWAP1 JUMP JUMPDEST DUP1 SWAP9 DUP2 SWAP6 DUP3 SWAP5 PUSH2 0x780 PUSH4 0x95EA7B3 PUSH1 0xE0 SHL SWAP1 JUMP JUMPDEST SUB SWAP3 GAS CALL SWAP2 DUP3 ISZERO PUSH2 0x909 JUMPI PUSH0 PUSH2 0x1189 PUSH2 0x6DD DUP3 SWAP11 PUSH1 0x20 SWAP8 DUP11 SWAP8 PUSH2 0x121B JUMPI JUMPDEST POP PUSH2 0x41F JUMP JUMPDEST SWAP3 PUSH2 0x11B0 PUSH2 0x1196 PUSH1 0x40 MLOAD SWAP1 JUMP JUMPDEST SWAP11 DUP12 SWAP7 DUP8 SWAP6 DUP7 SWAP5 PUSH4 0xF7C0849 PUSH1 0xE2 SHL DUP7 MSTORE PUSH1 0x4 DUP7 ADD PUSH2 0x10EB JUMP JUMPDEST SUB SWAP3 GAS CALL SWAP4 DUP5 ISZERO PUSH2 0x909 JUMPI PUSH0 SWAP5 PUSH2 0x11FA JUMPI JUMPDEST POP PUSH32 0xDD36740E2A012D93061A0D99EAA9107860955DE4E90027D3CF465A055026C407 DUP5 PUSH2 0x1086 PUSH2 0x1080 PUSH2 0x11F4 PUSH0 PUSH2 0x948 JUMP JUMPDEST SWAP5 PUSH2 0x41F JUMP JUMPDEST PUSH2 0x1214 SWAP2 SWAP5 POP PUSH1 0x20 RETURNDATASIZE PUSH1 0x20 GT PUSH2 0x10C0 JUMPI PUSH2 0x10B2 DUP2 DUP4 PUSH2 0x5EE JUMP JUMPDEST SWAP3 PUSH0 PUSH2 0x11C2 JUMP JUMPDEST PUSH2 0x1231 SWAP1 DUP10 RETURNDATASIZE DUP12 GT PUSH2 0x902 JUMPI PUSH2 0x8F5 DUP2 DUP4 PUSH2 0x5EE JUMP JUMPDEST PUSH2 0x1183 JUMP JUMPDEST ISZERO PUSH2 0x123D JUMPI JUMP JUMPDEST PUSH1 0x40 MLOAD PUSH3 0x461BCD PUSH1 0xE5 SHL DUP2 MSTORE DUP1 PUSH2 0x496 PUSH1 0x4 DUP3 ADD PUSH1 0x20 DUP1 DUP3 MSTORE DUP2 DUP2 ADD MSTORE PUSH32 0x4F776E61626C653A2063616C6C6572206973206E6F7420746865206F776E6572 PUSH1 0x40 DUP3 ADD MSTORE PUSH1 0x60 ADD SWAP1 JUMP JUMPDEST PUSH2 0xEF PUSH2 0x1291 PUSH2 0x96A JUMP JUMPDEST PUSH2 0x129D PUSH2 0x706 CALLER PUSH2 0xDC JUMP JUMPDEST EQ PUSH2 0x1236 JUMP JUMPDEST PUSH2 0x12BC PUSH2 0x89D PUSH2 0x12B2 PUSH0 PUSH2 0x689 JUMP JUMPDEST PUSH2 0x6DD DUP5 PUSH0 PUSH2 0xA2E JUMP JUMPDEST SWAP1 PUSH32 0x8BE0079C531659141344CD1FD0A4F28419497F9722A3DAAFE3B4186F6B6457E0 PUSH2 0x12E7 PUSH1 0x40 MLOAD SWAP1 JUMP JUMPDEST DUP1 DUP1 PUSH2 0x1093 JUMP JUMPDEST PUSH2 0xE8 SWAP1 DUP2 JUMP JUMPDEST PUSH2 0xE8 SWAP1 SLOAD PUSH2 0x12EE JUMP JUMPDEST PUSH2 0xE8 PUSH1 0x2 PUSH2 0x673 JUMP JUMPDEST ISZERO PUSH2 0x1310 JUMPI JUMP JUMPDEST PUSH1 0x40 MLOAD PUSH3 0x461BCD PUSH1 0xE5 SHL DUP2 MSTORE PUSH1 0x20 PUSH1 0x4 DUP3 ADD MSTORE PUSH1 0x1F PUSH1 0x24 DUP3 ADD MSTORE PUSH32 0x5265656E7472616E637947756172643A207265656E7472616E742063616C6C00 PUSH1 0x44 DUP3 ADD MSTORE PUSH1 0x64 SWAP1 REVERT JUMPDEST PUSH2 0xEF PUSH2 0x1362 PUSH1 0x1 PUSH2 0x12F5 JUMP JUMPDEST PUSH2 0x1376 PUSH2 0x136D PUSH2 0x12FF JUMP JUMPDEST SWAP2 DUP3 EQ ISZERO PUSH2 0x1309 JUMP JUMPDEST PUSH1 0x1 PUSH2 0xA52 JUMP JUMPDEST PUSH2 0xE8 PUSH1 0x1 PUSH2 0x673 JUMP JUMPDEST PUSH2 0xEF PUSH2 0x1376 PUSH2 0x137D JUMP INVALID LOG2 PUSH5 0x6970667358 0x22 SLT KECCAK256 0xE7 SWAP4 0x29 SELFBALANCE RETURN LT PUSH12 0xA487855EB1BA91A763B2544E 0x2B DUP8 PUSH30 0xD37D5011F985E6DB094664736F6C634300081C0033000000000000000000 "},"methodIdentifiers":{"ADDRESSES_PROVIDER()":"0542975c","LENDING_POOL()":"b4dcfc77","executeOperation(address,uint256,uint256,address,bytes)":"1b11d0ff","flashLoanAmount()":"73843962","flashLoanToken()":"09369024","initiateFlashLoan(address,uint256,bytes)":"e95437aa","owner()":"8da5cb5b","profitRecipient()":"7e2bad1e","recoverToken(address,uint256)":"b29a8140","renounceOwnership()":"715018a6","transferOwnership(address)":"f2fde38b"}}}}}