{
  "_format": "hh3-artifact-1",
  "contractName": "FlashLoanArbitrageur",
  "sourceName": "contracts/FlashLoanArbitrageur.sol",
  "abi": [
    {
      "anonymous": false,
      "inputs": [
        {
          "indexed": true,
          "internalType": "address",
          "name": "token",
          "type": "address"
        },
        {
          "indexed": false,
          "internalType": "uint256",
          "name": "amount",
          "type": "uint256"
        },
        {
          "indexed": false,
          "internalType": "uint256",
          "name": "profit",
          "type": "uint256"
        }
      ],
      "name": "FlashLoanExecuted",
      "type": "event"
    },
    {
      "anonymous": false,
      "inputs": [
        {
          "indexed": true,
          "internalType": "address",
          "name": "previousOwner",
          "type": "address"
        },
        {
          "indexed": true,
          "internalType": "address",
          "name": "newOwner",
          "type": "address"
        }
      ],
      "name": "OwnershipTransferred",
      "type": "event"
    },
    {
      "anonymous": false,
      "inputs": [
        {
          "indexed": true,
          "internalType": "address",
          "name": "token",
          "type": "address"
        },
        {
          "indexed": false,
          "internalType": "uint256",
          "name": "amount",
          "type": "uint256"
        },
        {
          "indexed": true,
          "internalType": "address",
          "name": "recipient",
          "type": "address"
        }
      ],
      "name": "ProfitExtracted",
      "type": "event"
    },
    {
      "anonymous": false,
      "inputs": [
        {
          "indexed": true,
          "internalType": "address",
          "name": "fromToken",
          "type": "address"
        },
        {
          "indexed": true,
          "internalType": "address",
          "name": "toToken",
          "type": "address"
        },
        {
          "indexed": false,
          "internalType": "uint256",
          "name": "fromAmount",
          "type": "uint256"
        },
        {
          "indexed": false,
          "internalType": "uint256",
          "name": "toAmount",
          "type": "uint256"
        }
      ],
      "name": "SwapExecuted",
      "type": "event"
    },
    {
      "inputs": [],
      "name": "ADDRESSES_PROVIDER",
      "outputs": [
        {
          "internalType": "address",
          "name": "",
          "type": "address"
        }
      ],
      "stateMutability": "pure",
      "type": "function"
    },
    {
      "inputs": [],
      "name": "LENDING_POOL",
      "outputs": [
        {
          "internalType": "address",
          "name": "",
          "type": "address"
        }
      ],
      "stateMutability": "pure",
      "type": "function"
    },
    {
      "inputs": [
        {
          "internalType": "address",
          "name": "asset",
          "type": "address"
        },
        {
          "internalType": "uint256",
          "name": "amount",
          "type": "uint256"
        },
        {
          "internalType": "uint256",
          "name": "premium",
          "type": "uint256"
        },
        {
          "internalType": "address",
          "name": "initiator",
          "type": "address"
        },
        {
          "internalType": "bytes",
          "name": "params",
          "type": "bytes"
        }
      ],
      "name": "executeOperation",
      "outputs": [
        {
          "internalType": "bytes32",
          "name": "",
          "type": "bytes32"
        }
      ],
      "stateMutability": "nonpayable",
      "type": "function"
    },
    {
      "inputs": [],
      "name": "flashLoanAmount",
      "outputs": [
        {
          "internalType": "uint256",
          "name": "",
          "type": "uint256"
        }
      ],
      "stateMutability": "view",
      "type": "function"
    },
    {
      "inputs": [],
      "name": "flashLoanToken",
      "outputs": [
        {
          "internalType": "address",
          "name": "",
          "type": "address"
        }
      ],
      "stateMutability": "view",
      "type": "function"
    },
    {
      "inputs": [
        {
          "internalType": "address",
          "name": "token",
          "type": "address"
        },
        {
          "internalType": "uint256",
          "name": "amount",
          "type": "uint256"
        },
        {
          "internalType": "bytes",
          "name": "params",
          "type": "bytes"
        }
      ],
      "name": "initiateFlashLoan",
      "outputs": [],
      "stateMutability": "nonpayable",
      "type": "function"
    },
    {
      "inputs": [],
      "name": "owner",
      "outputs": [
        {
          "internalType": "address",
          "name": "",
          "type": "address"
        }
      ],
      "stateMutability": "view",
      "type": "function"
    },
    {
      "inputs": [],
      "name": "profitRecipient",
      "outputs": [
        {
          "internalType": "address",
          "name": "",
          "type": "address"
        }
      ],
      "stateMutability": "view",
      "type": "function"
    },
    {
      "inputs": [
        {
          "internalType": "address",
          "name": "token",
          "type": "address"
        },
        {
          "internalType": "uint256",
          "name": "amount",
          "type": "uint256"
        }
      ],
      "name": "recoverToken",
      "outputs": [],
      "stateMutability": "nonpayable",
      "type": "function"
    },
    {
      "inputs": [],
      "name": "renounceOwnership",
      "outputs": [],
      "stateMutability": "nonpayable",
      "type": "function"
    },
    {
      "inputs": [
        {
          "internalType": "address",
          "name": "newOwner",
          "type": "address"
        }
      ],
      "name": "transferOwnership",
      "outputs": [],
      "stateMutability": "nonpayable",
      "type": "function"
    },
    {
      "stateMutability": "payable",
      "type": "receive"
    }
  ],
  "bytecode": "0x60806040523461002257610011610026565b6040516113c861015382396113c890f35b5f80fd5b61002e610074565b565b61003d61003d61003d9290565b90565b61003d6001610030565b905f19905b9181191691161790565b9061006961003d61007092610030565b825461004a565b9055565b61007c61008e565b61002e610087610040565b6001610059565b61002e336100fe565b61003d905b6001600160a01b031690565b61003d9054610097565b906001600160a01b039061004f565b61003d9061009c906001600160a01b031682565b61003d906100c1565b61003d906100d5565b906100f761003d610070926100de565b82546100b2565b61012261011c61010d5f6100a8565b610117845f6100e7565b6100de565b916100de565b907f8be0079c531659141344cd1fd0a4f28419497f9722a3daafe3b4186f6b6457e061014d60405190565b5f90a356fe6080604052600436101561001a575b3615610018575f80fd5b005b5f3560e01c80630542975c146100c957806309369024146100c45780631b11d0ff146100bf578063715018a6146100ba57806373843962146100b55780637e2bad1e146100b05780638da5cb5b146100ab578063b29a8140146100a6578063b4dcfc77146100a1578063e95437aa1461009c5763f2fde38b0361000e576103ea565b6103ba565b61034b565b610332565b6102f4565b6102d9565b6102b3565b610275565b610243565b610162565b6100f1565b5f9103126100d857565b5f80fd5b6001600160a01b031690565b90565b9052565b565b346100d8576101013660046100ce565b61013473a97684ead0e402dc232d5a977953df7ecbab3cdb5b604051918291826001600160a01b03909116815260200190565b0390f35b6100e8916008021c6001600160a01b031690565b906100e89154610138565b6100e85f600261014c565b346100d8576101723660046100ce565b61013461011a610157565b6001600160a01b0381165b036100d857565b905035906100ef8261017d565b80610188565b905035906100ef8261019c565b909182601f830112156100d85781359167ffffffffffffffff83116100d85760200192600183028401116100d857565b91909160a0818403126100d8576101f6838261018f565b9261020481602084016101a2565b9261021282604085016101a2565b92610220836060830161018f565b92608082013567ffffffffffffffff81116100d85761023f92016101af565b9091565b346100d8576101346102656102593660046101df565b949390939291926106a6565b6040519182918290815260200190565b346100d8576102853660046100ce565b61028d610962565b604051005b6100e8916008021c81565b906100e89154610292565b6100e85f600361029d565b346100d8576102c33660046100ce565b6101346102656102a8565b6100e85f600461014c565b346100d8576102e93660046100ce565b61013461011a6102ce565b346100d8576103043660046100ce565b61013461011a61096a565b91906040838203126100d8576100e890602061032b828661018f565b94016101a2565b346100d85761028d61034536600461030f565b906109e4565b346100d85761035b3660046100ce565b61013473794a61358d6845594f94dc1db02a252b5b4814ad61011a565b916060838303126100d85761038d828461018f565b9261039b83602083016101a2565b92604082013567ffffffffffffffff81116100d85761023f92016101af565b346100d85761028d6103cd366004610378565b92919091610d8d565b906020828203126100d8576100e89161018f565b346100d85761028d6103fd3660046103d6565b610e29565b6100e8906100dc906001600160a01b031682565b6100e890610402565b6100e890610416565b6100e873794a61358d6845594f94dc1db02a252b5b4814ad61041f565b0190565b1561045057565b60405162461bcd60e51b815260206004820152601960248201527f466c6173684c6f616e3a20496e76616c6964206c656e64657200000000000000604482015280606481015b0390fd5b156104a157565b60405162461bcd60e51b815260206004820152601c60248201527f466c6173684c6f616e3a20496e76616c696420696e69746961746f72000000006044820152606490fd5b62ffffff8116610188565b905035906100ef826104e6565b61018881600f0b90565b905035906100ef826104fe565b909160c0828403126100d85761052b838361018f565b9261053981602085016104f1565b92610547826040830161018f565b926100e86105588460608501610508565b9360a061032b8260808701610508565b634e487b7160e01b5f52601160045260245ffd5b9190820180921161058957565b610568565b1561059557565b60405162461bcd60e51b815260206004820152601e60248201527f466c6173684c6f616e3a20496e73756666696369656e742070726f66697400006044820152606490fd5b634e487b7160e01b5f52604160045260245ffd5b90601f01601f1916810190811067ffffffffffffffff82111761061057604052565b6105da565b801515610188565b905051906100ef82610615565b906020828203126100d8576100e89161061d565b6001600160a01b0390911681526040810192916100ef9160200152565b6040513d5f823e3d90fd5b9190820391821161058957565b6100e86100e86100e89290565b6100e8906100dc565b6100e89054610680565b9081526040810192916100ef9160200152565b9361074561073661073f61073061072161074c9561078b98979b6107196106f09b6106ce5f90565b506106f76106e26106dd610428565b61041f565b9d8e6001600160a01b031690565b3314610449565b6107136107066100dc3061041f565b916001600160a01b031690565b1461049a565b810190610515565b5095929396919694909461041f565b9561041f565b918c868d610f15565b93611126565b918661057c565b906107598282101561058e565b6020826107686106dd8861041f565b9561077260405190565b958692839263095ea7b360e01b5b84526004840161063e565b03815f885af1928315610909576107a79361090e575b50610666565b906107b15f610673565b8211610820575b506107e37f61268d74931c41c9775dffb6169a5208aab1d09cb2eb6aabe8b97162801e5dfa9261041f565b926107f96107f060405190565b92839283610693565b0390a27f439148f0bbc682ca079e46d6e2c2f0c1e3b820f1a291b069d8882abf8cf18dd990565b91602082610850946108326004610689565b5f61083c60405190565b80988195829461078063a9059cbb60e01b90565b03925af1908115610909577f61268d74931c41c9775dffb6169a5208aab1d09cb2eb6aabe8b97162801e5dfa936107e3926108dc575b506108916004610689565b6108a361089d8361041f565b9161041f565b907fe8eb8c8f84adf2839882d9edcae76aac2fdc2db21e5b6733649b7f814e29657e6108ce60405190565b868152602090a392506107b8565b6108fd9060203d602011610902575b6108f581836105ee565b81019061062a565b610886565b503d6108eb565b61065b565b6109269060203d602011610902576108f581836105ee565b6107a1565b610933611286565b6100ef610951565b6100dc6100e86100e89290565b6100e89061093b565b6100ef61095d5f610948565b6112a3565b6100ef61092b565b6100e85f610689565b906100ef91610980611286565b6109b8916109926106dd60209361041f565b61099a61096a565b5f6109a460405190565b80968195829461078063a9059cbb60e01b90565b03925af18015610909576109c95750565b6109e19060203d602011610902576108f581836105ee565b50565b906100ef91610973565b906100ef9392916109fd611286565b90610a11939291610a0c611355565b610c7a565b6100ef611387565b906001600160a01b03905b9181191691161790565b90610a3e6100e8610a459261041f565b8254610a19565b9055565b905f1990610a24565b90610a626100e8610a4592610673565b8254610a49565b906100ef610a7660405190565b92836105ee565b67ffffffffffffffff81116106105760208091020190565b90610aa7610aa283610a7d565b610a69565b918252565b369037565b906100ef610ac7610ac184610a95565b93610a7d565b601f190160208401610aac565b634e487b7160e01b5f52603260045260245ffd5b90610af1825190565b811015610b02576020809102010190565b610ad4565b90610b27610b20610b16845190565b8084529260200190565b9260200190565b905f5b818110610b375750505090565b909192610b5d610b5660019286516001600160a01b0316815260200190565b9460200190565b929101610b2a565b90610b74610b20610b16845190565b905f5b818110610b845750505090565b909192610b9a610b566001928651815260200190565b929101610b77565b90825f939282370152565b9190610bcb81610bc4816104459560209181520190565b8095610ba2565b601f01601f191690565b610be26100e86100e89290565b61ffff1690565b6100eb90610bd5565b98979590610c53610c7295610c458c60c09997610c37610c65966100ef9e99610c2a60e08601925f8701906001600160a01b03169052565b8482036020860152610b07565b916040818403910152610b65565b8c810360608e015290610b65565b6001600160a01b0390941660808b0152565b88830360a08a0152610bad565b940190610be9565b9291610c87846002610a2e565b610c92826003610a52565b610ca4610c9d61096a565b6004610a2e565b610d05610cb16001610673565b610cde610cbd82610ab1565b96610cd0610cca5f610673565b89610ae8565b906001600160a01b03169052565b610d00610cea82610ab1565b94610cfd610cf75f610673565b87610ae8565b52565b610ab1565b91610d1c610d125f610673565b610cfd8186610ae8565b610d276106dd610428565b91610d313061041f565b95833b156100d857610d655f80978194610d4a60405190565b9a8b998a98899763ab9c4b5d60e01b89528360048a01610bf2565b03925af1801561090957610d765750565b6100ef905f610d8581836105ee565b8101906100ce565b906100ef9392916109ee565b6100ef90610da5611286565b610e05565b15610db157565b60405162461bcd60e51b815260206004820152602660248201527f4f776e61626c653a206e6577206f776e657220697320746865207a65726f206160448201526564647265737360d01b6064820152608490fd5b6100ef9061095d610e186100dc5f610948565b6001600160a01b0383161415610daa565b6100ef90610d99565b6100e873e592427a0aece92de3edee1f18e0157c0586156461041f565b6100e8610100610a69565b905051906100ef8261019c565b906020828203126100d8576100e891610e5a565b80516001600160a01b031682526100ef919060e09081906020818101516001600160a01b03169085015260408181015162ffffff16908501526060808201516001600160a01b031690850152610ed660808201516080860152565b610ee560a082015160a0860152565b610ef460c082015160c0860152565b01516001600160a01b0316910152565b610100810192916100ef9190610e7b565b9392610f236106dd8661041f565b90610f2f6106dd610e32565b906020610f3b60405190565b93849063095ea7b360e01b8252815f81610f598b896004840161063e565b03925af19182156109095787610fe761103f935f966020966110c7575b50610fe0610f833061041f565b610fd0610f99610f93603c610673565b4261057c565b93610fb6610fa5610e4f565b6001600160a01b039098168c890152565b6001600160a01b038c16878b015262ffffff166040870152565b6001600160a01b03166060850152565b6080830152565b610ff28760a0830152565b611005610ffe86610673565b60c0830152565b6110216110118661093b565b6001600160a01b031660e0830152565b604051948593849283919063414bf38960e01b835260048301610f04565b03925af18015610909577fdd36740e2a012d93061a0d99eaa9107860955de4e90027d3cf465a055026c407915f91611098575b50611086611080829761041f565b9361041f565b936110936107f060405190565b0390a3565b6110ba915060203d6020116110c0575b6110b281836105ee565b810190610e67565b5f611072565b503d6110a8565b6110dd90873d8911610902576108f581836105ee565b610f76565b6100eb90610673565b61111f6100ef9461111860609498979561110e608086019a5f870190600f0b9052565b600f0b6020850152565b6040830152565b01906110e2565b9192611165919594936111365f90565b506020856111466106dd8761041f565b895f61115160405190565b80988195829461078063095ea7b360e01b90565b03925af1918215610909575f6111896106dd829a6020978a9761121b575b5061041f565b926111b061119660405190565b9a8b9687958694630f7c084960e21b8652600486016110eb565b03925af1938415610909575f946111fa575b507fdd36740e2a012d93061a0d99eaa9107860955de4e90027d3cf465a055026c407846110866110806111f45f610948565b9461041f565b61121491945060203d6020116110c0576110b281836105ee565b925f6111c2565b61123190893d8b11610902576108f581836105ee565b611183565b1561123d57565b60405162461bcd60e51b815280610496600482016020808252818101527f4f776e61626c653a2063616c6c6572206973206e6f7420746865206f776e6572604082015260600190565b6100ef61129161096a565b61129d610706336100dc565b14611236565b6112bc61089d6112b25f610689565b6106dd845f610a2e565b907f8be0079c531659141344cd1fd0a4f28419497f9722a3daafe3b4186f6b6457e06112e760405190565b8080611093565b6100e89081565b6100e890546112ee565b6100e86002610673565b1561131057565b60405162461bcd60e51b815260206004820152601f60248201527f5265656e7472616e637947756172643a207265656e7472616e742063616c6c006044820152606490fd5b6100ef61136260016112f5565b61137661136d6112ff565b91821415611309565b6001610a52565b6100e86001610673565b6100ef61137661137d56fea2646970667358221220e7932947f3106ba487855eb1ba91a763b2544e2b877dd37d5011f985e6db094664736f6c634300081c0033",
  "linkReferences": {},
  "deployedLinkReferences": {},
  "immutableReferences": {},
  "inputSourceName": "project/contracts/FlashLoanArbitrageur.sol",
  "buildInfoId": "solc-0_8_28-04976e8d1e3a36b5a90801805de99dba7590ec53"
}